:020000040800F2
:10000000C80700203D470008A1460008A346000895
:10001000A5460008A7460008A94600080000000001
:10002000000000000000000000000000AB460008D7
:10003000AD46000800000000AF460008B1460008C9
:10004000674700086B4700086F47000873470008C0
:10005000774700087B4700087F4700088347000870
:10006000874700088B4700088F4700089347000820
:10007000974700089B4700089F470008A3470008D0
:10008000A7470008AB470008AF470008B347000880
:10009000B7470008BB470008BF470008C347000830
:1000A000C7470008CB470008CF470008B5460008FF
:1000B000D3470008D7470008DB470008DF470008A0
:1000C000E3470008E7470008EB470008EF47000850
:1000D000F3470008F7470008FB470008FF47000800
:1000E00003480008074800080B4800082DE9F84FAE
:1000F00074A7A2B0D7E90045CDE900452C9EDFF8F2
:10010000307C04918DF843605FF000016FA40D9185
:1001100012944FF0FF368246904699460FE0C34650
:100120002C461BF8011B0498D0470028049000F0CF
:10013000B2800D98401C641E0D90F2D1A84498F82E
:100140000000252807D100210791089109910A9103
:100150000B910C910DE06A463146404600F0FEFFDF
:10016000050001D10D98B5E0D9D50125E6E741F0AC
:10017000010118F8010F2028F9D023280CD02B28D2
:1001800004D02D2805D0302809D086E041F00201A6
:10019000EFE741F00401ECE741F00801E9E741F045
:1001A0001001E6E700200F900AE00F98B84205DA48
:1001B00000EB800302EB4302303A0F9208F1010892
:1001C00098F80020A2F130000A28EED398F8000039
:1001D0002E2818BF0E9629D118F8010F2A280BD106
:1001E000D9F80000C9F8000008F1010850F8042B04
:1001F000C9F800000E9219E02D280CBF18F8010B69
:10020000002000220E920BE040B90E9ABA4205DAA5
:1002100002EB820403EB4403303B0E9308F1010828
:1002200098F80030A3F130020A2AEDD3ADF840105F
:10023000129898F8001000F09BFF08B118F8010B15
:100240008DF842009DF84200682804BF98F800101D
:10025000682903D162208DF8420008E06C2804BFB1
:1002600098F800006C2804D171218DF8421008F133
:10027000010813A806904A4618F8013B02A9504607
:1002800000F068F838B913AA02A9504600F0CAF97C
:1002900000287FF554AF30461CE02A2882D1D9F8D7
:1002A0000020C9F8002052F8040BC9F800200028EB
:1002B0000F9003D540420F9041F0040108F101086E
:1002C00084E700000000000000000000686A6C7411
:1002D0007A4C000023B0BDE8F08F622820D0682857
:1002E00011D06A2803D06C2827D0712825D108683E
:1002F000C01D20F007000860D0E900230830086026
:10030000194610467047002A0A680A60106803D030
:10031000121D0A6000B217E0121D0A6080B217E0D9
:10032000002A0A680A60106803D0121D0A6040B2F1
:100330000AE0121D0A60C0B20AE0002A0A680A60D8
:10034000106803D0121D0A60C1177047121D0A60A1
:10035000002170477CB50D4611461C462E69B4F14C
:10036000250200F04D811C3A00F08680121F022AFF
:1003700040F282800E3A00F00781521F5AD0093AAB
:100380007AD0921E16D0521E35D0521E022A73D930
:10039000121F30D0521F00F09A80521E4AD0521EB7
:1003A00000F0E480D21E00F0FD80921E42D0D21EEA
:1003B00040D02BE195F83A206C2A09D06869421C9C
:1003C0006A610A680A6052F8043B0A60335427E104
:1003D0000A680A6052F8043B0A6000210093019108
:1003E0004FF0FF322A6329466A4600F096F900284A
:1003F00040F1168101E195F83A000122FFF76DFF07
:10040000C5E900010023994204DA6869411C696169
:100410002D210DE0288F810704D56869411C696191
:100420002B2105E0C00722D56869411C69612021A4
:1004300031541CE095F83A000022FFF74EFFC5E961
:10044000000195F83800010711D5D5E900230020F7
:10045000834208BF82420AD044F02000782806D1A7
:10046000686930213154401C411C69613454214673
:1004700068693044E86083E00868C01D20F0070028
:100480000860D0E9002308300860C5E90023D5E9F9
:100490000001C80F04D06869411C69612D210DE07D
:1004A000288F810704D56869411C69612B2105E00B
:1004B000C00704D56869411C69612021315468690D
:1004C0003044E8602146284600F032FAA8E005F101
:1004D0003A02507820B14FF0FF340FF6243070E02C
:1004E0001078622808D0682824D06A2812D06C2896
:1004F0002ED071280ED02BE00A680A6052F8040B47
:100500000A6020B94FF0FF340FF60C3059E0E96A69
:10051000017085E00A680A6052F8040B0A6020B98D
:100520004FF0FF340FF6F0204BE0EA6AD317C0E932
:10053000002375E00A680A6052F8040B0A6020B9CB
:100540004FF0FF340FF6D0203BE0E96A018067E00E
:100550000A680A6052F8040B0A6020B94FF0FF34B1
:100560000FF6B4202DE0E96A016059E00A680A60DC
:1005700052F8040B0A600021C5E90001EE60782101
:10058000284600F029F94BE06C2285F83A200B68E8
:100590000B6053F8042B0B6052BB4FF0FF340FF687
:1005A000AC200EE095F83A206C2AF0D0086808607C
:1005B00050F8044B0860EC603CB94FF0FF340FF684
:1005C000702000F0EFFD201A76BD2E6B002E04D5B2
:1005D000204600F007FE044608E03246002120468F
:1005E00000F01CFE002814BF041B3446AC6117E069
:1005F000294600F092F8002812D54FF0FF3076BD62
:100600006869411C69612521315409E06969481C08
:10061000686125227254210002D0411C6961345462
:10062000002076BD2DE9F0410E460546716B7069DC
:10063000B46A091A306A091AB069091A706A091A83
:10064000F069091A96F838000C1B410790460DD442
:10065000002C0BDD2746B0682021A8470028B06099
:1006600057D0F06A401C7F1EF062F4D17369424695
:100670003146284600F0ACFC00284AD1376A002FEA
:100680000ADDB0683021A8470028B06041D0F06A88
:10069000401C7F1EF062F4D1B369F26831462846EF
:1006A00000F096FCA8BB776A002F09DDB068302106
:1006B000A847B06068B3F06A401C7F1EF062F5D1B5
:1006C000F068B169F36942183146284600F080FCB1
:1006D000F8B9B76A002F09DDB0683021A847B060CB
:1006E000B8B1F06A401C7F1EF062F5D196F8380070
:1006F00041070BD5002C09DDB0682021A847B06068
:1007000038B1F06A401C641EF062F5D10020BDE8EB
:10071000F0814FF0FF30BDE8F0812DE9F8470D463C
:10072000A3B02F6B002F8146904648BF6FF0004763
:1007300000F0A0FD696B40180FF62C118128D1E95B
:100740000023CDE9012328BF4FF0FF303ED2002423
:10075000002F2FDDD8F8001001AA684600F000FD38
:100760000646002E35D4D8F8000008B9761E30D4DD
:10077000B7421FDB6869301881280AD300206863FC
:1007800003AA29464846FFF74DFF040012D4002073
:10079000686103A8D5F814A032466946504400F0B9
:1007A0006FFDB244C5F814A058F8040B002818BF18
:1007B000BF1BCDD12CB903AA29464846FFF732FF0B
:1007C000044614B9002068616863204624B0BDE87F
:1007D000F0874FF0FF34F8E72DE9FC4707468A46DB
:1007E0003E69BAF16F0F08BF082405D04AF0200116
:1007F000782914BF0A2410243C25D7E90023BAF134
:10080000640F18BFBAF1690F9046994606D10021CE
:100810008B4203DAD8F1000869EB490900208145D1
:1008200008BF80451FD1386BE8B9082C4CD197F828
:100830003800010748D530203B2586F83B0043E0CF
:1008400000280ED597F8380000F01400102808D1C1
:100850007A6B7869121A386A121A511A0029C8BFBD
:100860003962BDE8F3878DF800A04046494622462C
:10087000E31700F059FD3032D0B26D1E3A280195D1
:1008800004DB9DF80000A0F151018A187255404622
:1008900049462246E31700F047FD8046894600207E
:1008A000814508BF804503D0F86871198842DCD3C0
:1008B000082C09D197F83800010705D5715D30295A
:1008C00002D06D1E30207055C5F13C01B961701920
:1008D000F860386B8142B3DA411A39624FF6EF7033
:1008E000398F01403987BDE8F3872DE9D0430646AB
:1008F0000F4614464FF00008DFF8389412E0E00786
:1009000007D542464B463046394600F025FE06469E
:100910000F464046494642464B4600F01DFE6410D5
:1009200080468946002CEAD130463946BDE8D0835E
:100930002DE9F34F054641F020048DB0D5E900893B
:10094000612C02AE09D0286B002848BF062003D4D2
:1009500008BF672C01D101202863D5E90023580086
:100960004015401C0ED119030CD00320A8619DF83E
:10097000380061381A2802D20FF2F46111E00FF248
:10098000F4610EE058004015401C0FD119030DD141
:100990000320A8619DF8380061381A2814D30FF29B
:1009A000DC61E868032200F06BFCD3E1194621F01A
:1009B0000043B3F5801F10460DD20027BB4208BF8D
:1009C000BA42019703D111E00FF2AC61E9E701AA45
:1009D00000F094FE0AE0DFF8607307EB1352DFF8D3
:1009E0005C3301921940DFF858331943C5E900011F
:1009F000612C0ED1E86830210170811CE9609DF8FE
:100A0000381061290CBF7821582141706869801C19
:100A10006861D5E900AB2BF0004300202AF000020A
:100A2000834204BF8242002300F05A81612C40F0CF
:100A3000A980286B00284CBF2120401C0090404614
:100A4000009F7F1C49460022002300F08FFED946FC
:100A500001988DF8082038BF89F00049001F0190E7
:100A6000002FD0460DF1090040F3498140F2FF719B
:100A7000DFF8D0B20C9106464046494600220023DA
:100A800000F08CFE80F03A814800400D00F11C021D
:100A900010D0002A0EDD0C98824205DB09F00040E0
:100AA00040EA0B01002013E0A448084040EA02514C
:100AB00040460DE029F00043002028F00002834268
:100AC00008BF82420FBF40461C22404600F07EFE17
:100AD0008046894600F018FFFF1F002F044609DDFD
:100AE00000F030FF02460B464046494600F03CFF0E
:100AF00080468946F01D072104E004F00F0200F84B
:100B0000012D2411002C01DD491EF6D5491E5CBFC4
:100B1000002200F8012DF9D5ECE00020194602AAC8
:100B20000A4400E05B1E12F80149491E8442F9D0D4
:100B30000F2804D10DF10900425C521C42540029D7
:100B400004D50198001D02AE5B1C0190591E12D401
:100B50009DF838007218147804F130085FFA88F4B0
:100B6000392CC4BFA0F13A04A044491E02F80189FF
:100B7000F1D58DF83800286B002840F1B080591E5F
:100B80002963ACE0404649460022002300F0EEFD18
:100B9000019938BF89F0004947F2975041436A4AAA
:100BA00091FBF2F20192D2F1070204DD4046494680
:100BB000FFF79BFE0AE0524200206449FFF795FED2
:100BC00002460B464046494600F040FF8046662CF0
:100BD000286BDFF87CB106BF019F0A3706273F1854
:100BE000142FC8BF142730208DF8080089460DF156
:100BF000090000E03046002F34DD064640464946F5
:100C000001F048F801460A4606F1080304200A26C6
:100C1000B2FBF6F606EB860EA2EB4E02303203F87C
:100C2000012C0A22B6FBF2F202EB820EA6EB4E0674
:100C30003036401E03F8026DE9D1083F002F03F162
:100C40000806D7DD084601F039F802460B46404653
:100C5000494600F089FE00225B4600F07DFC80469C
:100C60008946CBE70DF10901401A0DF1090604E0B0
:100C70000199491E401E0191761C31783029F7D028
:100C8000662C02D10199491C03E0652C0CBF01219F
:100C900000212B6BCB189842B8BF431E002B1ED4EB
:100CA000834204DAF05C3528A8BF392000DA30200E
:100CB0001946721E02EB010800E05B1E18F801994C
:100CC000491E8145F9D0392802D1705C401C70540E
:100CD000002904D50198401C16465B1C0190019820
:100CE00000B200901BB29DF838103246284600F042
:100CF00035F82FE0C61D002F3FF7BEAE30460DF190
:100D00000901401A009903468842C8BF0B46002BD0
:100D10000DF109063FF52FAF8342BFF6FEAE0DF190
:100D20000900C05C07287FF7F8AE0F20F6E6000048
:100D3000CBCCCC0C0000244002FCFFFFFFFF0F8057
:100D40000000E03F0000F07FA08601000000F03FBF
:100D500084D797410FB0BDE8F08F00002DE9F84728
:100D600083B006468A461746984600F0FBF9B8F16C
:100D7000000F406A356B90F8009002DC4FF00108DC
:100D8000BFA7BDF930404AF02000662808BF641CA8
:100D900015D0672840F0848014F1040FC0F28680DB
:100DA000AC4280F2838096F83800641C010702D4BC
:100DB000A845B8BF454620B22D1A48BF00250FFAF6
:100DC00084FAF068B169BAF1000F25DC4A1C3023BF
:100DD0004354002D03DC96F83800010703D5F06872
:100DE00000F80290521C15EB0A0FB8BF6C4220B2FB
:100DF000441941424445B8BFA046B26171620FFA3E
:100E000088F5F561F068B3692A463946184400F060
:100E100037FA641BB462C4E022B29045084417DA82
:100E20004246394600F02CFAB0694044B061AAEB62
:100E30000801002D716203DC96F838100A0705D509
:100E4000F16801F80090F069401CF061B562A8E01B
:100E5000394600F015FAB069002D5044A8EB04089B
:100E600003DC96F838100A0703D5F16801F8009002
:100E7000401CB0610FFA88F08542F068B369B8BFD2
:100E8000A8460FFA88F207EB0A01184400F0F8F9B7
:100E9000B0690FFA88F10844B061681A706280E0A6
:100EA000BAF1610F14D14FF0700A16E0A84504DAC8
:100EB00096F838100A0758BF45466D1E48BF0025F2
:100EC000BAF1670F14BF4FF0450A4FF0650A04E00E
:100ED000BAF1410F08BF4FF0500AB169F368481CDE
:100EE000B061002D17F8012B5A5403DC96F8381026
:100EF0000A071BD5F168431CB36101F80090002D6F
:100F000014DDA8F101080FFA88F08542F068B8BF37
:100F1000A8460FFA88F23946184400F0B1F9B069D2
:100F20000FFA88F108446D1AB0617562F068B16912
:100F30000844002C80F800A003D42B214170811CB0
:100F400003E02D2141706442811C00206A460AE0C2
:100F500023460A2493FBF4F404EB8405A3EB450336
:100F600002F8013B401C24B2002CF1DC012806DC15
:100F70004AF02002652A04BF302201F8012B48B94B
:100F8000302001F8010B07E0401E1DF80020303230
:100F900001F8012B0028F7DCF068B2691044091A47
:100FA000F16196F8380000F0140010280DD1716935
:100FB000B0694118706A4118F0694118B06A411867
:100FC000706B8142BCBF411A316204B0BDE8F0874A
:100FD000F8B505460E4617461C46002074B117F8B2
:100FE000011BB068A847B06030B1F06A401CF062E5
:100FF0000020641EF3D1F2BD4FF0FF30F2BD0000BF
:101000007072696E74665F733A20256E206469732E
:10101000616C6C6F776564007072696E74663A20FB
:1010200062616420256E20617267756D656E740063
:101030007072696E74665F733A2062616420257312
:1010400020617267756D656E740000007072696E64
:1010500074665F733A2062616420256C732061724C
:1010600067756D656E7400000000000000000000F0
:101070006E616E004E414E00696E6600494E46003C
:101080003000F0B40246106895681318506803EBFE
:101090005004C00721D54D441FE0F0BC02F10C0004
:1010A000704713F8017B05F8017B491EF9D1A0B107
:1010B000B60813F8011B06F00306032E08BF13F849
:1010C000016B01EB06214942801C294405D011F82F
:1010D000016B05F8016B401EF9D1A342DDD013F876
:1010E000016B16F0030104BF13F8011BC91C300982
:1010F0000F28DAD113F8010B0F30D6E71A487047E2
:1011000030B45368D418042B09DA41B1057804F8D7
:10111000015B10F8015B15B15B1C491EF3E75360DE
:1011200030BC704738B514461D4661B1FFF7E8FF83
:1011300061686A6B204690476FF00102811A02D005
:10114000491E03D005E06FF0010032BD4FF0FF30C3
:1011500032BD0021616032BDDA6B1047024BE1E71E
:10116000014BF9E70148704758000020200000209B
:101170000278C9B28A421AB11CBF10F8012FF9E7F0
:1011800018BF00207047B1F5807F02D34FF0FF30C9
:1011900070470170012070470078401E8041C043B5
:1011A000C00F704780B500B906A005490B681BB198
:1011B00022220021984701E000F08DFD222002BD8F
:1011C000C0030020636F6E73747261696E7420686F
:1011D000616E646C65723A20626164206D65737340
:1011E0006167650000F10103810704D010F8011B5D
:1011F00089B18107FAD10268B2F10131914311F04E
:10120000803F04BF50F8042FF6E710F8011B11B11E
:1012100010F8011BFBE7C01A70470000C9B2830732
:1012200006D0521E22D310F8013B9942F7D11FE09D
:10123000083A13D302F1040241EA012141EA0141D3
:1012400050F8043B121F21BF4B40A3F1013C2CEA94
:10125000030C1CF0803FF3D0C9B2001F083210F815
:10126000013B521E28BF91EA030FF8D818BF012096
:10127000401E704780B5FFF741FF006C02BD0000C3
:1012800062B38B0708D0521E11F8013B00F8013BF6
:1012900000F024808B07F6D1830740F0208000BF48
:1012A000103A07D330B4B1E83810103AA0E838103B
:1012B000F9D230BC530724BFB1E80810A0E80810E9
:1012C00044BF51F8043B40F8043BD20724BF31F837
:1012D000022B20F8022B44BF0B7803707047121FBB
:1012E00017D35B0009D151F8043B20F8023B1B0CDB
:1012F000121F20F8023BF6D20BE051F8043B00F835
:10130000013B1B0A20F8023B1B0C121F00F8013B9B
:10131000F3D238BF121D521E24BF11F8013B00F852
:10132000013BF8D870470000B3BBD9B1B2F5803F9C
:101330007DD2022A1ED98C46B1FBF2F102FB11C309
:101340001B0443EA1043B3FBF2FC02FB1C3380B2E4
:1013500040EA0343B3FBF2F002FB103240EA0C40D8
:1013600000237047022A05D98446B0FBF2F002FB45
:1013700010C270474AB105D100F0010249085FEA86
:101380003000704700220023704700F0A7BC0B001C
:101390000200002100207047904271EB030CF6D34D
:1013A000B3F5803F2FD2F0B5B3FA83F7B1FA81F4E9
:1013B000A7F10F0E3D1B5340CEF1200602FA0EF2AC
:1013C000F3415340B5F10F0746D80F3C2C44414040
:1013D000C4F12006A040F1414140B1FBF3F603FB0C
:1013E0001611A2FB0645001BA94102D2761E8018E9
:1013F000594180EA010221FA0EF362FA0EF200214D
:101400005A403046F0BD30B4B1FBF3FC03FB1C1175
:10141000A2FB0C45001BA94103D2ACF1010C8018C2
:10142000594130BC02460B46604600217047B2F17C
:10143000807F65D3F0B5B2FA82F7B1FA81F4C7F1D3
:101440000F063D1B22FA06F307F1110EF24120357B
:101450005A40B5F10F07B8D94140C4F12006A04069
:10146000F1414140B1FBF3FC03FB1C11A2FB0C4515
:10147000001BA94103D2BCF1010C801859410F2F68
:1014800012D30F3FC90341EA5041B1FBF3F603FB0E
:101490001611A2FB0645D4EBC030A94102D2761E3C
:1014A0008018594146EACC3C07B34140C7F12006B9
:1014B000B840F1414140B1FBF3F603FB1611A2FB2A
:1014C0000645001BA94102D2761E8018594180EAC8
:1014D000010221FA0EF3C7F1200462FA0EF20CFAAF
:1014E00007F05A402CFA04F13043F0BD80EA0102C3
:1014F00021FA0EF3002162FA0EF260465A40F0BD66
:101500008C46B1FBF2F102FB11C31B0243EA1063EC
:10151000B3FBF2FC02FB1C331B024CEA002043EA43
:101520001063B3FBF2FC02FB1C331B024CEA0020ED
:1015300043EA1063B3FBF2FC02FB1C331B024CEAD0
:10154000002043EA1063B3FBF2FC02FB1C324CEABE
:101550000020002370470000B0B581EA030C0CF0B6
:10156000004C40F2FF7515EA11541DBF15EA1357E0
:10157000AC42AF4239E0E41923EA455343F4801307
:10158000C90241F0004141EA505EC7021100A7FBC9
:10159000020200284FF00000EEFB01204FF0000196
:1015A000E3FB072118BF42F0010240180021494126
:1015B000E3FB0E01A4F580640F0302D25200404108
:1015C000494154F101046CDD470872F1004250F1C9
:1015D000000051EB0451A1F580115CBF41EA0C0100
:1015E000B0BD4CEA05510020B0BD05EA1357AC422E
:1015F00014BFAF4241E050EA410E1CBF52EA430E15
:1016000002E061460020B0BD24423C441BD15FEAA9
:10161000070EF6D0090302BF01460020AEF1140EFA
:10162000B1FA81F7AEEB070401FA07FE0C37C7F1F8
:10163000200100FA07F7C8404EEA000E23EA45539E
:1016400043F48013A2E733F00043B3FA83F704BFF7
:10165000B2FA82FE77440B3FE41BB7F1200E2FBF96
:1016600002FA0EF3BB40C7F1200E22FA0EFE38BF7D
:1016700043EA0E03BA40641C82E750EA410E14BFED
:1016800052EA430E6FF000014FF4001717EB430FBF
:101690008ABF194617EB410FB5E74CEA0551002008
:1016A000B0BDD4F10104B4F120070FDAC4F1200772
:1016B000520828BF42F0010210FA07F501FA07F7B5
:1016C000E1BF2A43E0403843E1400FE0352C98DC8D
:1016D000C7F1200452EA400220FA07F218BF42F094
:1016E000010231FA07F0A1400A43002172F10042E1
:1016F00050F1000051EB0C01B0BD000010B51446D4
:1017000000F002F8226010BDC1F30A5343B14A0051
:1017100012F5001F28D2A3F2FE32A1EB025170474E
:1017200050EA410C20D001F0004C31EA0C01B1FA32
:1017300081F204BFB0FA80F3D2180B3AB2F1200361
:101740002CBF00FA03F1914041EA0C013EBFC2F107
:10175000200C20FA0CF319439040524240F2FD3322
:10176000D21A01EB03517047002270474FF4001C5E
:101770001CEB410F94BF1CEB430F09E041EA030C43
:1017800050EA4C0C52EA0C0C03D2994208BF90422A
:10179000704714BF8B428242704700004FF4001C18
:1017A0001CEB410F94BF1CEB430F09E041EA030C13
:1017B00050EA4C0C52EA0C0C03D28B4208BF824216
:1017C000704714BF9942904270470000124254D4AF
:1017D00040F2FF7C1CEA11530FD0634531D09B18B7
:1017E00063453CBF01EB0251704701F0004141EA03
:1017F0000C510020AFF30080704750EA410320D025
:1018000001F0004C91EA0C011CD0B1FA81F30B3BC2
:101810009A420DD9D21A994051EA0C01C3F1200C19
:1018200020FA0CFC61449840531C40F2FF7CD7E73F
:10183000914041EA0C01C2F1200C20FA0CF319434B
:1018400090407047B0FA80F31533202BE0D3202A64
:10185000EED3203A203B9A4209D9D21A00FA03F17A
:1018600041EA0C010020531C40F2FF7CB8E700FA6B
:1018700002F141EA0C0100207047524240F2FF7C25
:101880001CEA11530DD06345DBD0B2EB030C3CBF17
:10189000A1EB025170470CF1010221EA035141F41E
:1018A000801150EA410CCCD001F0004C352A27DCE5
:1018B00030B481EA0C01B2F1200309DAC2F120034D
:1018C000044601FA03F5D0402843D1409C400CE087
:1018D000C3F12002450020FA03F418BF44F00104CC
:1018E00021FA03F091400C43002174F1004550F1BE
:1018F000000051EB0C01244230BC7FF47BAF7047F9
:101900006146002076E70000C1F30A5340F2FE3240
:101910009B1A14DDD3F120034FEAE17208DDC902FE
:1019200041EA505141F00040D84080185040704783
:1019300003F2E13010B1D24382F000407047002042
:1019400070470000C11768B14840401AB0FA80F2F1
:101950009040D21CC907C2F5846241EA025202EBF0
:10196000D02140057047000070B44FF0004591EA67
:10197000030F40F1B5816B40841A71EB030603D26B
:10198000001BB141121973414FF4001C1CEB410FB5
:1019900034BF7CEB430442E00C0DA4EB1356352E10
:1019A0004FDC45EAC323DB0A45EAC121C912B6F17F
:1019B00020050DDD63FA05F6EB4086EA03051242C9
:1019C00018BF45F00105C01851F100010CD213E019
:1019D00062FA06F5F2405540F3415A40B340F340F5
:1019E0005A408018594107D349085FEA30005FEA3E
:1019F000350528BF45F0010501F58011420875F154
:101A0000004250F1000041EB04514E0016F5001F5A
:101A100070BC38BF70470020090D090570471CEBEA
:101A2000410F10D252EA43060BD0BCEB410F05D850
:101A30000C0DAB43661E342EB6DD02E0AB438018BE
:101A4000594170BC704770BC70470000F0B540F25F
:101A5000FF7581EA030C0CF0004C15EA11541DBF10
:101A600015EA1357AC42AF42E5E0BC41C1F31301A4
:101A7000C3F31303801A994143F4801304D2641E04
:101A80004000494180185941C90241EA5051B1FB17
:101A9000F3F603FB1611A2FB0675D7EBC020A94194
:101AA00002D2761E80185941C90241EA5051B1FB59
:101AB000F3FE03FB1E11A2FB0E75D7EBC020A9415C
:101AC00003D2AEF1010E80185941890241EA9051CA
:101AD000760546EA8E2EB1FBF3F603FB1611A2FB48
:101AE0000675D7EB8020A94102D2761E8018594195
:101AF000C90241EA50514EEA060EB1FBF3F603FB70
:101B00001611A2FB0675D7EBC020A94102D2761EA2
:101B100080185941C90241EA5051B1FBF3F703FB68
:101B20001711A2FB0735D3EBC020A94167F10007CD
:101B30000CBF004247F0010766F3D5274FEA1E317C
:101B4000B80814F5806412DDBD0775F1004250EB52
:101B50000E5051EB045111F5801F5CBF41EA0C019E
:101B6000F0BD4CF07F6141F0E0410020F0BDBD07C9
:101B70006D0840EA0E5041F48011D4F10104B4F133
:101B800020060ADAC4F120060200E04001FA06F35A
:101B9000E1401843B24015430EE0342C13DCC6F18B
:101BA000200445EA40056D0820FA06F2154321FAA3
:101BB00006F0A1400D43002175F1004250F10000F4
:101BC00051EB0C01F0BD00205FEA0C01F0BDCFB974
:101BD00092185B41B3FA83F704BFB2FA82F6BF19D9
:101BE0000B3FB7F120062FBF02FA06F3BB40C7F147
:101BF000200622FA06F638BF3343BA401CB1E41976
:101C0000641E33E77F4231F00041B1FA81F404BF32
:101C1000B0FA80F6A4190B3CB4F120062FBF00FAED
:101C200006F1A140C4F1200620FA06F638BF314380
:101C3000A0403C1B1AE7AC421ABF05EA1357AF425B
:101C400012E050EA41061CBF52EA4306BFE750EAE1
:101C50004107304661461CBF41EA0551F0BD52EADA
:101C6000430C08BFC143F0BD00204FF4001616EB33
:101C7000410F98BF16EB430F08BF16EB410F24BF6F
:101C8000C14305E016EB430F0CBF61464CEA05511A
:101C9000F0BD0000400D491840EA81200CD2490DEA
:101CA000A1F58061491C40F0004005DBD1F11F0126
:101CB00054BFC840C017704700207047014648B164
:101CC000B0FA80F18840C91CC1F58461090501EBB7
:101CD000D02140057047012000F0B6B870470000E1
:101CE000841A71EB030604D26E40001BB141121935
:101CF00073414FF4001C1CEB410F34BF7CEB4306D7
:101D000082E00C0DA4EB1356362E7BDC012E45EA47
:101D1000C32341DC43EA525312BFD20292025B0852
:101D2000240545EAC12141EA5051D2EBC020994136
:101D300025D407D1B0FA80F610FA06F162D000205F
:101D4000203608E0B1FA81F6B140C6F1200220FA4F
:101D500002F21143B0404FEAF474B4EB465434F04D
:101D600001064FEA74040AD8D6F50016760D04F081
:101D70000044F04061FA06F25040F1404840C00A89
:101D800040EA415021F0004128BF5FEA500550F180
:101D9000000044EBD12135E0DB0A45EAC121C90A44
:101DA000B6F120050EDD42EA0242120CC5F1200612
:101DB00003FA06F6EB4042EA06056D42984161F1EE
:101DC00000010DE062FA06F5F240554063FA06FCA8
:101DD00082EA0C02F3405A406D42904161EB0301EC
:101DE00011F4801F05D1641E620502D06D004041D0
:101DF000494121F48011430875F1004350F100007E
:101E000041EB045170BC70471CEB410F15D223F01D
:101E1000004352EA43060BD04FEA4C0CBCEB410F97
:101E200004D80C0D661E342EB7DDEBE7801A9941FD
:101E300050EA410608BF0021E4E708BF1CEB430F4E
:101E400028BF6FF00001DDE780B5AFF30080024AE4
:101E500011001820ABBEFBE726000200F8B5040015
:101E600020D004F13C05687820B900212970204673
:101E700000F099FB00F08AF82068026842F4004202
:101E800002602068016821F40041016000F0FAFD61
:101E900001466068DFF83021904205D2DFF82C015E
:101EA000814205D20120F2BDDFF824018142F9D33D
:101EB000DFF82001B1FBF0F320684668B60943EA79
:101EC000861646602668376A6068904206D34FF4EB
:101ED000967043434FF47A70B3FBF0F35B1CBF0979
:101EE00043EA87133362491E2368DE6967689742B5
:101EF00006D27F0000F044F8042913D2042111E037
:101F0000A06820B907EB470700F03AF805E0192070
:101F1000474300F035F841F4804108050CBF01212A
:101F200041F40041DFF8180206400E43DE612168EB
:101F30000A68E06922F0C0020243206A02430A6094
:101F40002168DFF800028A68024020690243E068E5
:101F500002438A602168CA68A3696069120A034360
:101F600043EA0222CA602068016841F00101016071
:101F7000002068602020687000202063A870F2BDF7
:101F8000B1FBF7F1491CC1F30B01704724206870C5
:101F900020680168490849000160704701213170DB
:101FA00020680168CA0703D4026842F00102026097
:101FB0007047608D2085DFF8E002E062704700988E
:101FC000401E009000987047A186010080841E008A
:101FD00000093D0040420F002DE9FC4700F0D1F818
:101FE00000F0B2F804D100F0A3F800F057F900288F
:101FF00040F08C803078012800F08880FFF7CEFF19
:102000004146D4F800E00C9F0B98DDF828C0DEF8BC
:10201000008028F40068CEF800804FF0220E86F889
:1020200001E053464FF0400E86F802E04A464FF07A
:10203000000EC6F804E0C4F824C06085FFF7B9FFBD
:1020400001950097204600F039F9002852D1208DE3
:1020500010B900F0BAF81AE02168012802D100F0A6
:1020600009F904E00228086804D100F0F3F80160DF
:1020700062B60CE000F0D6F809E000F0CEF80028D7
:1020800038D120680169606A017000F063F8208D22
:10209000002836D004282AD20128EED000F039F8E2
:1020A0000BD1002200F0FAF8002823D100F071F8DB
:1020B00000F05AF8616A0870E7E7002200F0EEF8D5
:1020C000002817D100F08DF8B3FBF0FE232000FBB1
:1020D0000EF000902168FFF772FF28B14A6950079F
:1020E000F9D500F01CF8E3E700F0A8F802E000F0F2
:1020F00094F808B101200AE000F056F8C7D500694D
:10210000D8E720217170B070307000E00220BDE887
:10211000F6870228DFF8A01100953B467047086853
:1021200040F40070086021680869616A08707047AF
:10213000009519230122DFF870117047000000009C
:102140000030FFFF007CFFFF04F13C06054670787D
:1021500020287047606A411C6162208D411E2185E4
:10216000608D411E61857047606A411C6162208DEF
:10217000411E2185608D411E618562B62168086916
:102180007047044600200090884691469A4600F029
:10219000A7BC72B62068016841F400710160206834
:1021A0000169606A0170704720680169606A0170A6
:1021B000606A411C6162208D411E2185608D411E37
:1021C0006185206841694A0770470090206841692D
:1021D0000091826900920099016841F400710160E8
:1021E00070472068016821F48061016072B619238C
:1021F00020680169606A0170606A411C6162208D1B
:10220000411E2185608D411E61854FF47A70DFF893
:1022100094100A68B2FBF3F370472A463946204609
:1022200000F067B940F480600860002100912068E8
:1022300041690091806900900099704700212163F5
:1022400020207070B170706840F02000706062B63D
:102250003170704740F40060086072B60021009150
:10226000206841690091826900920099016821F417
:1022700080617047086820F48060086072B60021B1
:10228000009120684169009182690092009901687B
:1022900041F40071704700000000FFFF204600F08D
:1022A00089B800001C00002002001000016841F401
:1022B0008061016070470000040001002DE9F84FC3
:1022C00005462868DDF828800B9F0C46FFF7EEFFD7
:1022D00099462868036843F480731646036000F04B
:1022E00055F800284FF4007A34D12968DFF8C0B0DF
:1022F00004F0FE00086100F040F800283AD1009098
:102300003A46286841690091806900902846009902
:10231000414600F0C3F870B9B9F1010F05D0296842
:10232000300A086100F02EF828B92868F6B2066174
:1023300000F028F830B1286C04281BD1286800F080
:102340002DF817E02868016841F48071016000F001
:102350001DF838B128680168CA0548BFC5F840A013
:10236000032008E0286844F00104E4B2046100F0AE
:1023700004F800B10120BDE8F28F3B4642465946C1
:10238000284645E03A464146284687E000974346BE
:1023900000224FF0011128460CE03068016841F43A
:1023A000007101607047026842F400720260704779
:1023B000020001002DE9F8430F46089C3D02064645
:1023C000904699462D0E3068012D0CBF40698069FA
:1023D000384080B2B9B288420CBF0120002040458D
:1023E00013D119F1010FEED000F07AFB001B8145EB
:1023F00002D3B9F1000FE6D100203063202106F1AD
:102400003C0000F06CF8012000E00020BDE8F28301
:102410002DE9FC410F463D020646144698462D0E16
:102420003068012D13D14169394089B2BAB2914265
:1024300013D041694A0512D5FFF7B5FF6FF48060EC
:102440003168486100F020F841F0040116E081692C
:10245000394089B2BAB29142EBD1002012E014F1B6
:10246000010FDDD000F03CFBA0EB0800844201D35B
:10247000002CD5D100F008F841F020014160002285
:1024800002700120BDE8F68100203063202106F1B2
:102490003C004170002181704168704770B505466D
:1024A0000C46164628684169080611D4284600F0F3
:1024B00048F858B914F1010FF4D000F011FB801B5B
:1024C000844201D3002CEDD100F004F8012070BD4E
:1024D000002070BD00202863202105F13C0000226F
:1024E000417000218170416841F02001416002701B
:1024F000704770B505460C461646286841694A067D
:102500001DD44169CA0609D400F0EAFA801B84424E
:1025100001D3002CF1D1FFF7DDFF0EE06FF01001C9
:10252000416100202863202105F13C004170002119
:1025300081704168416000210170012070BD002060
:1025400070BD01684A69530511D56FF480634B6112
:10255000002101633C302021417000220021817064
:10256000416841F004014160027001207047002081
:102570007047000080B52148214901602149416030
:1025800000218160C1604FF48041016100214161FF
:102590008161C1610162FFF761FC18B1BDE80140D2
:1025A00000F073BC01BD18B585B0044601A8102128
:1025B00000F0B0FC2168124A91421CD1124C2068F4
:1025C00040F0080020601222216801F0080100910B
:1025D000C0210098019103200490029201A90B48A8
:1025E00000F09CFC606840F400106060606800F4DB
:1025F00000100090009806B010BD000018020020E6
:1026000000540040A086010018100240000C014058
:102610002DE9F843040016D02078DFF88064C10764
:1026200013D5706800F00C00042807D0706800F023
:102630000C00082840D17068C1033DD5316888037B
:1026400003D56068002800F0F6802178DFF8587420
:10265000880719D5706810F00C0F07D0706800F06B
:102660000C00082862D17068C1035FD43168880704
:1026700003D52069012840F0DE803168606921F0CF
:10268000F80141EAC00131602178080772D5A069DC
:10269000DFF81814002867D001220A6000F020FA41
:1026A0000546706A810700F1C88000F019FA401BE6
:1026B0000228F6D9032037E16068B0F5803F0FD0DB
:1026C00038B9316821F480313160306820F48020DD
:1026D00009E0B0F5A02F316807D141F480213160C5
:1026E000306840F48030306006E021F480313160A1
:1026F000326822F480223260606858B100F0F0F94C
:10270000054631688803A0D400F0EAF9401B65282B
:10271000F7D3CFE700F0E4F905463068810394D59C
:1027200000F0DEF9401B6528F7D3C3E7206970B1DC
:102730000121396000F0D4F905463068810700F1C5
:10274000B68000F0CDF9401B0228F6D9B2E7386018
:1027500000F0C6F905463068810795D500F0C0F94C
:10276000401B0228F7D9A5E7086000F0B9F9054633
:10277000706A810770D500F0B3F9401B0228F7D9C1
:1027800098E708B9306A09E00528306A06D140F0B8
:1027900004003062306A40F0010005E0400840006B
:1027A0003062306A20F00400306241F28938E0681B
:1027B00068B100F095F98146306A810700F18480A4
:1027C00000F08EF9A0EB09004045F5D372E700F068
:1027D00087F98146306A810776D500F081F9A0EB50
:1027E00009004045F6D365E700F07AF9401B02285E
:1027F0007BD95FE700F074F9001B022840F28F805C
:1028000058E700F093F804463068810140F18B806E
:1028100000F066F9001B0228F6D94BE701280AD020
:102820007068226A00F48031914202BF00F4701097
:10283000616A884277D0012076E0DFF8640201689F
:10284000C9084FF47A72B1FBF2F2009200BF00980F
:10285000411E00280091F9D12078410739D5F0694F
:102860000025C10009D4F06940F08050F0610125D5
:10287000F06900F0805000900098DFF83482D8F8BA
:102880000010C8051BD4D8F8000040F48070C8F8C8
:10289000000000F025F98146D8F80010C8050ED4D4
:1028A00000F01EF9A0EB09006528F5D302E73068B7
:1028B000616920F0F80040EAC1003060E4E6E068B9
:1028C00001287FF45EAF65E71DB1F06920F080500C
:1028D000F061E06938B3716801F00C0108299DD0FE
:1028E00002288ED100F022F80546306881013FF5BC
:1028F0007BAF206AB0F5803F05D17168A06821F4F4
:102900000031014371607168206A21F47411014340
:10291000606A01437160012000F009F804463068E4
:1029200081017FF567AF0020BDE8F28300203866A3
:1029300000F0D6B82DE9F8430400884673D05D4E08
:10294000306800F00700404502D200F072F86AD10A
:102950002068524D810712D5400703D5686840F4BE
:10296000E06068602178080703D5686840F460502B
:1029700068606968A06821F0F0010143696020780F
:10298000C10748D56068012802D129688A0303E09D
:10299000022803D129688A0103D444E02A689107F8
:1029A00041D56968890840EA8100686041F2893947
:1029B00000F096F807466868616800F00C00B0EB1C
:1029C000810F28D000F08CF8C01B4845F3D30320BA
:1029D0001FE02078410705D56968E06821F4E061CF
:1029E000014369602078010706D56868216920F4F1
:1029F000605040EAC100686000F026F86A682E491D
:102A0000C2F30312895C264AC840106000F00DF83A
:102A10000020BDE8F283306800F007008045D8D27E
:102A200000F007F8D5D00120F3E72448006800F053
:102A30005FBB3168C90848EAC1013160306800F005
:102A400007004045704700001D4916480A6802F01B
:102A50000C03082B00D0704710B500BF1BA4C2F3B5
:102A60008343D203E35C09D5096800BF1BA2C1F30D
:102A700040415843515CB0FBF1F010BD184611497C
:102A8000484310BD06480E4A006813680E49C3F358
:102A90000222FFE7895CC840704700000010024036
:102AA0001C00002000127A000000424280044242D2
:102AB00000700040002002402C4700081800002051
:102AC0000410024000093D005847000802030405B5
:102AD000060708090A0B0C0D0E0F1010010200006A
:102AE00001484068704700BF1000002038B5044618
:102AF000207F012849D1DFF80453287858B90021F4
:102B0000204600F0F9FC6860012000F03FF841F039
:102B10000201016231BD012837D10021204600F0B9
:102B2000EBFCA860002021684862A9686A68E86830
:102B30008A4238BF881A05D3914203D24FF6FF73F9
:102B4000981A0818E860FFF7B9F84FF06632DFF816
:102B5000B032FEF77BFF00224FF08043FEF7FCFC13
:102B60000022DFF8A032FEF719FE94BF0020FEF726
:102B7000CBFE6880002000F009F80162DFF88802CF
:102B80000068C16821F00201C16031BD2870206871
:102B9000016A21F00A010162016A704780B541EAC9
:102BA000002000F045FD994900F054FDBDE80440C7
:102BB000974900F0C1BD70B500220EE000EB440360
:102BC00030F814605D88B5423CBF20F814505E8038
:102BD000641C4B1E9C42F1DB521C93B28B4238BFEB
:102BE0000024F6D370BD2DE9F8479DB0824600263B
:102BF000DFF82092DFF82082884F04AD32243220A3
:102C000003210290019100970123BA6892B25146C4
:102C10004046FFF7E1F9387170B939787878FFF7F5
:102C2000BDFF0146F960484600F004FE00F06EFE6C
:102C3000B1B225F81100761C282000F079FE641E40
:102C4000DDD1B1B204A8FFF7B6FF0020002103E0F8
:102C500035F812201018491CCAB2B3B29A42F7D301
:102C6000B6B2B0FBF6F0ADF80C00BDF80C0000F009
:102C700073FE494600F060FD1EB0BDE8F08700001D
:102C80002DE9F84F8CB000F075FE00F085FE00F0E5
:102C9000D9F8634CE06840F40010E0600027E06879
:102CA00000F40010009006AD009800F0BEF8206817
:102CB00040F4001000F0B8F8206820F4001000F094
:102CC000B3F800F07DFEFFF755FC00F0E3FE00BF17
:102CD0000FF2B81075A400F055FF00214A4800F02B
:102CE00067FA4FF4967000F023FE00BF6DA104A8B0
:102CF000D1E90023C0E9002304A8C65D3046FFF7F0
:102D000072FF45F827007F1C00F050FF02460B467B
:102D10003146204600F036FF062FEDDB002100246F
:102D2000E0B255F8200000F095FC0146641CE0B2CA
:102D30000628F5DB08463B496AA400F0FDFC064680
:102D400000F034FF02460B465FA000F01BFF002797
:102D5000F8B255F82000314600F04CFF00F026FF95
:102D600002460B46204600F00DFF7F1CF8B20628F5
:102D7000EEDB21A5284600F005FF0FF27C190FF2CB
:102D80007018264CDFF890A003AE07E0594648467D
:102D900000F0F8FE2CE0284600F0F4FE022704A81C
:102DA000032110F807B0322000F046F807225946F8
:102DB0005046FFF711F92071052000F0B9FD207988
:102DC0000028E3D100F034F8E06000F0EFFE0246A6
:102DD0000B46404600F0D6FE6420032100F02CF89C
:102DE0000622B2215046FFF7F7F800F021F8E06024
:102DF0007F1C042FD3DBCEE70A000000A8030020CD
:102E000066664D400060784060030020006855C64B
:102E1000000048420000C8421802002000000020C4
:102E2000101002400000C0402060642000F080BD0F
:102E30009DF80C107078B1E603AA029001910092FF
:102E40000123704700B58FB005A8282100F062F873
:102E50006846142100F05EF80220059001210991D6
:102E600010200A9000210C9105A8FFF7D1FB0F203C
:102E7000009000214FF4A060049001910291039111
:102E80006846FFF757FD0FB000BD70473D3D3D3D23
:102E90003D3D3D20303030203D3D3D3D3D3D3D0AF6
:102EA0000A000000A2B2A4B4A6B60000417420300B
:102EB00078255820616D6269656E745F6176722055
:102EC0003D20252E32460A000A476C6F62616C2055
:102ED000416D6269656E7420415652203D20252E59
:102EE00032460A00446973703A20252E32460A00A1
:102EF000252E32463B0000000A4572726F72206F29
:102F00006E204932432E204164647265737320251C
:102F1000580A0000002200F0ADBE00002DE9F84F75
:102F200000240025654A664BDFF898814FF00F09B1
:102F30004FF0010A83468E460CE0D1680840D0600D
:102F400007E09660DEF80460B602F6D5D06801436B
:102F5000D160641CDEF8001031FA04F000F0A680A5
:102F60000AFA04F73940B942F3D1DEF8040058B345
:102F700001281AD002281FD0032833D0112817D0D7
:102F800012281DD0504EB0421CBF504EB0421BD034
:102F90004F4EB0421CBF4F4EB04215D04E4EB042C5
:102FA0001CBF4E4EB0420FD01DE0DEF80C501AE0B0
:102FB000DEF80C502D1D16E0DEF80C50083512E03E
:102FC000DEF80C500C350EE0DEF8080008B90425D8
:102FD00009E0012819BF0825CBF814700825CBF8A3
:102FE000107000E00025B1F5807F03D258464FEA0B
:102FF000840C05E0A4F108060BF104004FEA860CEE
:10300000066809FA0CF7BE4305FA0CF73E43066062
:10301000DEF80400C0009CD5D8F8000040F00100A4
:10302000C8F80000A600D8F8000000F001000090E9
:1030300006F00C0C0098A00853F8207009FA0CF662
:1030400027EA0606264FBB4508BF00270ED0254FAE
:10305000BB4508BF012709D0234FBB4508BF022746
:1030600004D0224FBB450CBF0327042707FA0CF7F7
:103070003E4343F82060C843DEF80460F603166858
:103080004CBF0E4306401660DEF80460B603566877
:103090004CBF0E4306405660DEF804609768F602A7
:1030A0004CBF41EA070600EA07064AE7BDE8F18F90
:1030B00081B002B90904016101B070470004014008
:1030C000080001401810024000001110000012100A
:1030D000000021100000221000003110000032100A
:1030E00000080140000C01400010014000140140A4
:1030F00038B50D4D0D4A297804464FF47A70B0FB6F
:10310000F1F11068B0FBF1F000F012FE50B9102C94
:1031100008D2002221464FF0FF3000F0E1FDAC6004
:10312000002032BD012032BD100000201C00002014
:1031300002206870211D206800F0F4F90120A872B7
:10314000A870E87028716871A871E87128726872B7
:103150006870002032BD2068012200F05BBA206850
:10316000C26842F0020270472068C26842F008025A
:1031700070472068C26842F004027047044604F1B8
:103180003E00704738B5040001D1012032BD00F087
:103190000BF818B900F004F800F0B6FCFFF7C8BF50
:1031A000002129702046704704F13C05687870477B
:1031B0001CB5FFF7E3FF11B9027803790AE004298F
:1031C00002D14278437905E0082907BF82788379E4
:1031D000C278C379012A08BF012B01D0012016BD96
:1031E00019B902220270027120E0042905D10222DD
:1031F00042704271FFF7BDFF1AE0082905D1022293
:1032000082708271FFF7B0FF12E00223C370C371B6
:1032100008000BD00429EDD00829F3D00C2901BFF8
:103220002068C36843F01003C36002E0FFF797FF14
:10323000C260FFF790FF00F023F818BFB0F1804F95
:1032400006D000F014F81CBFDFF85010884205D1FA
:1032500000F011F804D000F01BF801E000F002F8D3
:10326000002016BD026842F0010202607047DFF8DC
:10327000301088427047816801F0070106297047C5
:103280002068DFF8201088427047C160012228685A
:10329000016841F001010160704700000008004032
:1032A00000040040002C014010B50446206801696C
:1032B0008A0715D5C1688A0712D56FF0020202612C
:1032C00001212177806910F0030F204602D0FFF71B
:1032D0000DFC03E000F04CFD00F087F800202077A3
:1032E000206801694A0715D5C1684A0712D56FF0F1
:1032F0000402026102212177806910F4407F204698
:1033000002D0FFF7F3FB03E000F032FD00F06DF8B0
:1033100000202077206801690A0715D5C1680A07CF
:1033200012D56FF00802026104212177C06910F004
:10333000030F204602D0FFF7D9FB03E000F018FD91
:1033400000F053F80020207720680169CA0615D5DF
:10335000C168CA0612D56FF01002026108212177F8
:10336000C06910F4407F204602D0FFF7BFFB03E0A6
:1033700000F0FEFC00F039F8002020772068016999
:10338000CA0708D5C168CA0705D56FF001020261F6
:10339000204600F0EEFC206801690A0608D5C168E5
:1033A0000A0605D56FF080020261204600F0E2FCBB
:1033B000206801694A0608D5C1684A0605D56FF03C
:1033C00040020261204600F0D6FC206801698A06AE
:1033D0000AD5C1688A0607D56FF02002026120462F
:1033E000BDE8104000F0C8BC10BD204600F0C5BCD0
:1033F000F8B500F07BF801D10220F2BD012184F87C
:103400003C107AB9EB686A682968206800F0B9F85E
:103410002168886920F00C0088618A69A8680243E5
:103420008A615FE0042A10D1EB686A682968206825
:1034300000F0D6F82068816921F4406181618169DA
:10344000AA6841EA022181614CE0082A24D121685E
:10345000E8686A682B681C3100014E6826F48076A3
:103460004E6000F0F0000E684F68B60842EA86022F
:1034700022F0F0021B02104327F4007703F40073DC
:1034800008603B434B60086820F00C0008600A6845
:10349000A86802430A6025E02068E9686A682B682A
:1034A0001C300903466826F48056466001F47041DA
:1034B0000668476826F4407646EA022626F47046F7
:1034C0001B03314327F4005703F4005301603B43CF
:1034D0004360016821F4406101600268A96842EA22
:1034E00001220260002084F83C00F2BD04460D4633
:1034F00094F83C00012870470246002031B10429AD
:1035000007D0082908D00C2909D070471068406BF3
:1035100070471168886B70471068C06B70471168FE
:10352000086C704770B52A4E03682A4C2A4DB04289
:1035300018BFB0F1804F03D0A84218BFA04209D1F4
:103540004A6823F070031343B0421CBFB0F1804FB0
:10355000A84201D0A04203D1CA6823F440731343A8
:103560004A6923F0800313430360B0428A68C26251
:103570000A68826202D10969184A11600122426117
:1035800070BD70B5046A124E640864000462B042F3
:103590008469056A18BFB0F1804F05D00E4EB04265
:1035A0001CBF0C4EB04203D1A40842EA840201E0E1
:1035B00044F001021B0122F0F00203F0F0031A4371
:1035C00025F00A0501F00A0182612943016270BDFC
:1035D000002C01400008004000040040302C014055
:1035E00030B5046A24F0100404621B038469056A80
:1035F00024F4407444EA022424F4704403F4704335
:103600000901234325F0A00501F0A00183612943AE
:10361000016230BD10B501F01F01036A01248C4026
:10362000A343036202FA01F1036A1943016210BD68
:10363000C2175040801AB0FA80F10AD08840D1F108
:103640009D01D20742EAC151020672F1004241EBEC
:103650001020704790EA010F40F1D28281F00041C2
:10366000431A4FF000423EBF5340C01AC91800BF72
:10367000D3095FEAD05C13EB400F34BFB3EB410FCB
:1036800040E07CEBD1530CD342EA012122D8D1EBAC
:10369000402009D3400A28BF5FEA500140EBCC50DC
:1036A0007047401A15D04002B0FA80F2521C904088
:1036B000400A4FEA3C23B3EB026384BF00EB730084
:1036C00007E040F400001A16DB07C2F10102D04007
:1036D00018437047182BFCDC31FA03F202FA03F3AB
:1036E000591A38BF42F00102D2EB40203CBF4000E3
:1036F000ACF1010C5FEACC5CC20572F100414CEB0D
:103700005020704713EB400F0FD2C94209D0ACEBE9
:10371000D153022B03DB4902172BDDDD70479143A8
:10372000401AC042D5D10020704713EB410FD0D3CF
:103730006FF000007047000010B5FF2313EAD0546B
:103740001DBF13EAD1529C429A4239E0A41ADA070B
:1037500080EA0103134042EA012142EA0020421AB2
:103760003CBF641E01EB4202090AB2FBF1FE01FB01
:103770001E221202B2FBF1F001FB10226EF30F20A9
:103780001202B2FBF1FE4EEA00207F3406DDFE2C71
:1037900024DA53EA500050EBC45010BDD4F10204B7
:1037A00001FB1E2240F08071192C1DDC21FA04F06F
:1037B000C4F12004A140114371F10042584110BDF1
:1037C0009C421ABF03EAD1529A420FE080EA010EEE
:1037D0000EF00043400004D0490016D143F0FF40F2
:1037E00010BD490008BFD343180010BD9C4205D14D
:1037F000D21AF7D001F00041484010BD4A0212BF72
:103800000846484000F0004010BD4AB90902B1FA2C
:1038100081F2914044B1A418C00140F000409EE7FD
:10382000C90141F0004152420002B0FA80F4A040C8
:10383000141B94E7FF2212EAD05C1DBF12EAD15399
:10384000944593422BE09C44D30780EA01021A403E
:1038500043EA002043EA0121A1FB0030C04238BF07
:1038600040007CF17F010BDBFE294ADA5B0842EA6B
:10387000C15153EA006373F1004C51EB10207047C3
:10388000D1F1080CDCF120012FDB5B0810FA01F10B
:103890000B4320FA0CF073F10041504170479445FE
:1038A0001CBF02EAD153934280EA010202F00042B7
:1038B0001DD0400019D0490017D05BB9634514D022
:1038C0000902B1FA81F39940BCEB030CC00140F04E
:1038D0000040C1E70002B0FA80FC10FA0CF0B3EB34
:1038E0000C0CC90141F00041B6E7100070474000E0
:1038F0000AD0490008D010F1807F94BF11F1807F79
:1039000002E042F0FF407047D043704700180CD2ED
:10391000010E7F3909D4D1F11F015DBFC00140F014
:103920000040C8406FF00000704700207047000062
:1039300038B50446FFF7D4F814F1010F054602D05C
:10394000044908780419FFF7CBF8401BA042FAD3CA
:1039500031BD00BF1000002000280AD0B0FA80F16D
:103960008840D1F19D01C905020672F1004241EB88
:103970001020704780B50748016841F010010160D0
:10398000032000F0A0F90020FFF7B2FB00F0F6F9E9
:10399000002002BD0020024007480168CA010AD485
:1039A000026842F0807202600021044841600168B0
:1039B00041F0010101607047FCED00E0001000E003
:1039C00030B585B068461021FFF7A4FA2D482E4D7A
:1039D000046844F01004046001682C4C01F01001EC
:1039E00004910499016841F004010160026802F049
:1039F0000402049200220499016841F00801016068
:103A00004FF40051006800F0080004900498284624
:103A1000FFF74EFB012240212046FFF749FB4FF400
:103A20000050012100900191002002210290039199
:103A300028466946FFF772FA402001210090019163
:103A4000022003210290039120466946FFF766FA9F
:103A50004FF480600090002102200191029069469D
:103A60000B4C2046FFF75AFA4FF4006000900021FB
:103A700001200191029069462046FFF74FFA05B0F8
:103A800030BD000018100240001001400008014045
:103A9000000C014038B500BF38A1344C344DD1E999
:103AA000002386B002A8CDE900231021FFF732FAE7
:103AB0000720606025600020A0604FF6FE70E06087
:103AC000002020616061A0612046FFF75BFB08B128
:103AD000FFF7DBF90020009001906946204600F0D6
:103AE0006FF908B1FFF7D1F900200121029003918D
:103AF00004900590002202A92046FFF779FC08B146
:103B0000FFF7C3F907B030BD18B585B0044601A86A
:103B10001021FFF7FFF92168154A914224D1154879
:103B2000026842F4006202600022016801F4006150
:103B300000910099016841F0040101604FF4807127
:103B4000006800F00400009000980B480191029278
:103B5000039201A9FFF7E2F9002200211B2000F0E7
:103B6000BFF81B2000F0D9F806B010BD600300209C
:103B7000002C014018100240000801400000000025
:103B8000000000000EB4C0B5024603A80021019059
:103B9000009101AB0121044878440C30FCF7A6FAEF
:103BA00006BC5DF810FB00BF5F0B0000C0F3C751FF
:103BB00081B1FF2906D0C110400721F0E04101F199
:103BC0006051704741020CBF40F4E0016FF00041CA
:103BD0000020704700F0004100020AD0B0FA80FCDB
:103BE00000FA0CF001F16051A1EB0C5101EBD02176
:103BF0004005704790EA010F7FF532AD81F000413A
:103C0000421A3CBF801A89184FF0004CC0F3C752CB
:103C1000FF2A24D0C1F3C75313B3D21AD2F1190328
:103C200027DD4CEA01214CFA03F321EA0303D140DA
:103C3000C20D4CEA0020401834BF20EA0C004CEAC8
:103C40005000D20553EA006373EB0C0C52EB1020CA
:103C5000420012F1807F38BF7047C00DC005704729
:103C6000490212BF9A4200EB5120F8E7D2F1170344
:103C7000D9D5704700B500BF130096469446103959
:103C800028BFA0E80C50FAD85FEA417C28BF0CC0DE
:103C900048BF40F8042BC90728BF20F8022B48BFB3
:103CA00000F8012B00BD00000901020081B002D420
:103CB0002948815405E0294802F00F02104400F819
:103CC000041C01B07047264A13684FF6FF0100023A
:103CD0000B4000F4E060184322490843106070472D
:103CE00038B51F4B1C68C4F30223C3F10704052C2D
:103CF00028BF04241D1D072D34BF0023DB1E012512
:103D000005FA04F4641E2140994005FA03F35B1E92
:103D10001A401143BDE83440C6E7010007D4012230
:103D200000F01F01104B8A40400943F820207047E3
:103D300010B5401EB0F1807F01D3012010BD0B4CA7
:103D400060600F214FF0FF30FFF7AEFF0022A2604E
:103D500007202060002010BD00E400E018ED00E026
:103D60000CED00E00000FA0500E100E010E000E0EA
:103D70007047704770477047704770470E4881B072
:103D8000016841F001010160026802F00102009245
:103D90000099416841F080514160406800F08050D6
:103DA000009000980548016821F0E06141F08071C1
:103DB000016001B0704700BF1810024004000140CC
:103DC00078B500F13C031A78012A01D1022072BDB6
:103DD00001241C7002225A7005686E68AC680A687B
:103DE00026F0700616436E6002680B48824218BFC8
:103DF000B2F1804F05D0094882421CBF0848824278
:103E000004D1486824F08004044394600120587071
:103E10000020187072BD0000002C0140000400401A
:103E20000008004010B50446AFF30080204600F0C3
:103E300005F80446AFF30080204610BD7CB500F1C4
:103E40000F06F608F600B04240D2082E04D208262B
:103E500002E0083000F047F8DFF804512C68210038
:103E600005D1002007E00268B24221D2011D086896
:103E70000028F8D12068291D0A68824222D01368E0
:103E8000B34238BF111DF7D312E093190B60801BAA
:103E900054685C600B6818601660096800291DBFD3
:103EA00048680028081D0020286002F1080076BD3F
:103EB00061B10A681068A0F10803B342E5D2506806
:103EC0000860EAE700F04EF80028C2D1002076BD75
:103ED00010B5040006D0AFF30080204600F003F8D0
:103EE000AFF3008010BD002800D1704750B4A0F19E
:103EF00008021368072B2BD913F0070F28D1184C91
:103F0000616809B18A4202D25160626013E0486878
:103F100000B3904238BF0146F9D31BE0964203D16B
:103F20001B180B600A4606E0486810B1134498421B
:103F30000ED350604A60506850B11368D118814266
:103F400006D1002121600168CB18136040685060E1
:103F500050BC704708680E18B242DFD250BC7047A0
:103F6000B80300200749086808B1002070470648D8
:103F7000C008C00008600549C908C900091A0160E5
:103F8000704700BFC4030020CF070020C8090020ED
:103F90002DE9F04107468846387810F0030F1646A1
:103FA0001D4633D0384600F099F878BBB8F1000FC1
:103FB0001CBFD8E900018619012D2ED13888C10413
:103FC00015D5396A07F14402384600F0A3F83A6B78
:103FD000044602B93A69F968384600F09BF8361B86
:103FE000341A7A69F968384600F094F8261A1EB92E
:103FF0004DB916F1010F09D097F903002A46314651
:1040000000F08EF8064616F1010F09D12320AFF318
:1040100000804FF0FF30BDE8F081022DE8D1EBE7E2
:10402000388810F4405F0ED07868F86038617861A5
:10403000B8617868F86107F14400386207F1300030
:10404000786200203863B8F1000F05D0D8E902018A
:1040500007F13402C2E9000139884CF6FF600140E3
:1040600039800020BDE8F08170B50546AFF30080CF
:104070002888810415D56E680024EA6895F9030044
:104080003146914212D2521A00F070F810F1010F2D
:104090001CBF00283618F0D10FE04DF6FF7001402C
:1040A00029802846AFF30080002070BD0022002147
:1040B00000F05CF810F1010F00D101246868E8609D
:1040C000A861E861002C2988E7D041F400712980BB
:1040D0002846AFF300804FF0FF3070BDF8B5A0B9AF
:1040E000AFF3008000250A4E08244FF0FF373068F8
:1040F00020B1FFF7B9FF002848BF3D46361D641EBA
:10410000F5D1AFF300802846F2BDBDE8F240ABE741
:1041100078010020914234BF511A002108467047AF
:104120003EB504000D00012A02D100F0C1F807E0FD
:10413000022A07D100940020019069460C20ABBEF2
:104140002D1801E0002A0CD10094019569460A203F
:10415000ABBE002805D100222100280000F085F820
:1041600001E00020C04303B030BD0000F8B50D00F1
:10417000164611D1012818BF10F1010F0AD12949A3
:104180000A6D3AB100200865012000F0B3F810F183
:10419000010F44D00020F2BD012803D0BDE8F84053
:1041A00000F0A8B8502E13D91E490A6D3AB100206C
:1041B0000865012000F09EF810F1010F2FD0324663
:1041C0002946012000F096F810F1010F14D126E0E5
:1041D0003446144F84B13A6D0020B918502A0DD2DC
:1041E00015F8013B01F8013B0A2B08BF0120521CC6
:1041F000641EF3D13A6503E03046F2BD3A6524B956
:104200000028F9D0386D0028E4D03A6D00203865D8
:104210003946012000F06EF810F1010FDAD14FF0AD
:10422000FF30F2BD6C02002010B4314A0021134669
:104230001C6884421EBF491C9C6884421EBF491CE6
:104240001C69844209D09C69491C844205D0491CE0
:1042500020331029ECD310BC7047002342F83130D2
:1042600002EBC1014B6010BC704778B4204C0023B6
:1042700025462E688E421EBF5B1CAE688E421EBF56
:104280005B1C2E698E4209D0AE695B1C8E4205D044
:104290005B1C2035102BECD372BC7047054604EB39
:1042A000C303012A04BF59684D195D6072BC704791
:1042B00010B40F4A002113461C6884421EBF491CDB
:1042C0009C6884421EBF491C1C6984420AD09C69B8
:1042D000491C844206D0491C20331029ECD310BC61
:1042E0000020704702EBC100406810BC704700001E
:1042F0009801002080B5002901D1002002BD0128CD
:1043000001D0022802D100F005F802BD00F02AF821
:1043100002BD000070B40B00002111480068C0010C
:104320000FD4080070BC70475D782D0225439C783F
:1043300026042E43DC78240634431B1D0460121F20
:10434000091D002AEDD0E02000060468002CFAD0F8
:104350001C78042AE8D204705B1C491C521EF0E74A
:10436000FCED00E018B583B0030014000093019148
:10437000029469460520ABBE01221900201AFFF7FE
:1043800074FF04B010BD10B50446E068A16988420E
:1043900051D3218849F202030B40022B08D00804B4
:1043A0004CBF4FF400704FF48440014321803BE048
:1043B00001F4C042B2F5C04F06D1A168884203D3D0
:1043C0002046FFF78BFE78BB208810F4406F02BFB9
:1043D000606804F14401884217D14FF40070FFF780
:1043E00021FD606030B904F144006060E060401C71
:1043F000A0600AE0218841F040012180E060606116
:1044000000F500726068A260E06160682061A068E9
:10441000A061207841070AD502220021204600F041
:104420000CF810F1010F02D14FF0FF3010BD2088C1
:1044300040F4C0402080002010BD70B504460D46F9
:104440001646AFF3008033462A4600212046FFF788
:104450009FFD05462046AFF30080284670BD38B565
:1044600004000ED0207810F0030F03D094F903005D
:10447000002809D5AFF30080204600F02FF8AFF3F5
:1044800000804FF0FF3032BD2046FFF727FE054683
:10449000AFF300802078410644BF606800F05CF80C
:1044A0000020606094F90300022804D900F056F857
:1044B00008B14FF0FF35E06B48B100F05BF808B190
:1044C0004FF0FF35E06B00F047F80020E063204636
:1044D00000F004F8AFF30080284632BD01780A06E8
:1044E00026D51C4A13680021834203D1002342F8D9
:1044F00021301BE05368012183421EBF02219368D3
:104500008342F3D0D368032183421EBF0421136981
:104510008342EBD05369052183421EBF0621936974
:1045200083421EBF0721D3698342DFD000F014B855
:10453000002101804FF0FF31C17000F14401416062
:10454000C160016141618161C161016200F13001BD
:104550004162704778010020FFF7BABC1CB5020029
:10456000009269460220ABBE04001000FFF75CFE1B
:10457000200016BDE0B50090FCF734FE01906946BE
:104580000E20ABBE03B000BD38B50C46C5B2204608
:10459000AFF30080E068A169884204D32046FFF7AA
:1045A000F2FE00280FD4E068401CE06000F8015DD6
:1045B0002088010503D440050BD50A2D09D12046DA
:1045C000FFF78CFD28B12046AFF300804FF0FF309D
:1045D00032BD2046AFF30080284632BD19E050F8C6
:1045E000042BD30744BFA9F101039A18091F002324
:1045F000042942F8043BF9D25FEA817C134604D5D2
:104600004FF0000CA2F800C09B1CC90744BF00215A
:10461000197050F8041B0029E1D1704738B50D4DD1
:104620000824286800281CBF017811F0030F05D06A
:1046300090F90310002958BFFFF711FF2D1D641ECC
:10464000EFD1BDE83840002200214FF0FF30FFF7E6
:104650008DBD00BF7801002010B50749794418319D
:10466000064C7C44163404E00A68081D114488474F
:104670000146A142F8D110BD08000000240000004E
:104680005DFFFFFF300200009801002000000000E5
:10469000F3C9FFFF7C0100001A01000000000020A8
:1046A0007047FEE7FEE7FEE7FEE77047704770479A
:1046B00000F006B80148FEF7F7BD000060030020D7
:1046C00002494A68087882184A6070471000002042
:1046D00000F00DF8002801D0FFF7BEFFAFF3008017
:1046E0000020AFF30080FEF7CBFA00F002F80120C3
:1046F000704700F001B800000746FFF78FFF38460B
:10470000FDF7A2FBFBE738B504460D46284600F04E
:1047100005F8A84218BF0024204632BD0149FFF722
:1047200033BF00BFE8000020704700000000000019
:104730000000000001020304060708090148804741
:1047400001480047294700084D470008AFF30080A3
:10475000AFF30080FFF7BCFF00000000010203047C
:1047600000002E004300FFF7FEBFFFF7FEBFFFF77C
:10477000FEBFFFF7FEBFFFF7FEBFFFF7FEBFFFF76D
:10478000FEBFFFF7FEBFFFF7FEBFFFF7FEBFFFF75D
:10479000FEBFFFF7FEBFFFF7FEBFFFF7FEBFFFF74D
:1047A000FEBFFFF7FEBFFFF7FEBFFFF7FEBFFFF73D
:1047B000FEBFFFF7FEBFFFF7FEBFFFF7FEBFFFF72D
:1047C000FEBFFFF7FEBFFFF7FEBFFFF7FEBFFFF71D
:1047D000FEBFFFF7FEBFFFF7FEBFFFF7FEBFFFF70D
:1047E000FEBFFFF7FEBFFFF7FEBFFFF7FEBFFFF7FD
:1047F000FEBFFFF7FEBFFFF7FEBFFFF7FEBFFFF7ED
:10480000FEBFFFF7FEBFFFF7FEBFFFF7FEBF0000D2
:10481000520001520709520108221008F00507242E
:10482000F400604700080452FF01F2006214100116
:104830000000640C214C322003F115012002991173
:1048400000082C4387113C2101100301040000E4FF
:104850004412E50452E404211BA108F212D06410B2
:1048600007020401011003002060045210042134E7
:104870006108F004122C01002018014840030802CE
:1048800002C002402108210421346108127444F25C
:0D48900012604812A0B412E804F206302CA9
:040000050800474D5B
:00000001FF
